:100000000C9461000C947E000C947E000C947E0095
:100010000C947E000C947E000C947E000C947E0068
:100020000C947E000C947E000C947E000C947E0058
:100030000C947E000C947E000C947E000C947E0048
:100040000C9435020C947E000C947E000C947E007F
:100050000C947E000C947E000C947E000C947E0028
:100060000C947E000C947E00000000002400270009
:100070002A0000000000250028002B0000000000DE
:1000800023002600290004040404040404040202DA
:100090000202020203030303030301020408102007
:1000A0004080010204081020010204081020000012
:1000B0000007000201000003040600000000000029
:1000C000000011241FBECFEFD8E0DEBFCDBF11E08E
:1000D000A0E0B1E0E4E7F5E002C005900D92A031A8
:1000E000B107D9F711E0A0E1B1E001C01D92A9313B
:1000F000B107E1F70E9424020C94B8020C940000AE
:100100006F927F928F929F92AF92BF92CF92DF9227
:10011000EF92FF920F931F93DF93CF930F92CDB780
:10012000DEB7809108010E94D001782E80910A01EB
:100130000E94D001882E80910C010E94D001E82EEF
:1001400080910E010E94D00100E0882309F401E0B3
:10015000FF24EE2011F4FF24F394D02EDF20992405
:10016000882011F4992493946624772011F466244E
:10017000639460E0EE2009F461E090E0882009F4E7
:1001800091E0A92EA822BB24772011F4BB24B394BC
:10019000CC24882311F4CC24C394182F162368216F
:1001A0006A29672188218B21682B8D2D8921862141
:1001B000682B8091000199830E947C016E2D6B2138
:1001C0008C2D8821682B99819123692B1721612B14
:1001D000809102010E947C010921F920F6200F295B
:1001E0008E2D8C21082B80910401602F0E947C01B0
:1001F000E820E720DE28C720DC28AB20DA28809121
:1002000006016D2D0E947C010F90CF91DF911F910F
:100210000F91FF90EF90DF90CF90BF90AF909F90A5
:100220008F907F906F9008958091080160E00E9408
:100230003D0180910A0160E00E943D0180910C0126
:1002400060E00E943D0180910E0160E00E943D014E
:100250008091000161E00E943D018091020161E016
:100260000E943D018091040161E00E943D01809166
:10027000060161E00E943D010895CF93DF93482F6E
:1002800050E0CA0186569F4FFC0134914A575F4F98
:10029000FA018491882369F190E0880F991FFC018D
:1002A000E859FF4FA591B491FC01EE58FF4FC5915D
:1002B000D491662351F42FB7F8948C91932F909595
:1002C00089238C93888189230BC0623061F42FB716
:1002D000F8948C91932F909589238C938881832B0C
:1002E00088832FBF06C09FB7F8948C91832B8C9383
:1002F0009FBFDF91CF910895482F50E0CA018255EA
:100300009F4FFC012491CA0186569F4FFC01949196
:100310004A575F4FFA013491332309F440C0222336
:1003200051F1233071F0243028F42130A1F0223033
:1003300011F514C02630B1F02730C1F02430D9F4C3
:1003400004C0809180008F7703C0809180008F7DF2
:100350008093800010C084B58F7702C084B58F7DF4
:1003600084BD09C08091B0008F7703C08091B00038
:100370008F7D8093B000E32FF0E0EE0FFF1FEE586B
:10038000FF4FA591B4912FB7F894662321F48C9177
:100390009095892302C08C91892B8C932FBF08954F
:1003A000682F70E0CB0182559F4FFC012491CB0157
:1003B00086569F4FFC0144916A577F4FFB019491F1
:1003C000992319F420E030E03CC0222351F123307E
:1003D00071F0243028F42130A1F0223011F514C03E
:1003E0002630B1F02730C1F02430D9F404C0809118
:1003F00080008F7703C0809180008F7D8093800084
:1004000010C084B58F7702C084B58F7D84BD09C0CC
:100410008091B0008F7703C08091B0008F7D809372
:10042000B000892F90E0880F991F84589F4FFC01DE
:10043000A591B4918C9120E030E0842311F021E06B
:1004400030E0C90108950895CF93DF930E947D02A3
:100450000E9423020E941401C0E0D0E00E948000AC
:100460002097E1F30E940000F9CF1F920F920FB680
:100470000F9211242F933F938F939F93AF93BF932A
:100480008091140190911501A0911601B09117016E
:10049000309118010196A11DB11D232F2D5F2D371D
:1004A00020F02D570196A11DB11D209318018093B6
:1004B000140190931501A0931601B0931701809138
:1004C000100190911101A0911201B09113010196B8
:1004D000A11DB11D8093100190931101A0931201F1
:1004E000B0931301BF91AF919F918F913F912F9145
:1004F0000F900FBE0F901F901895789484B582606E
:1005000084BD84B5816084BD85B5826085BD85B5B7
:10051000816085BDEEE6F0E0808181608083E1E866
:10052000F0E010828081826080838081816080839E
:10053000E0E8F0E0808181608083E1EBF0E08081A1
:1005400084608083E0EBF0E0808181608083EAE773
:10055000F0E08081846080838081826080838081FC
:10056000816080838081806880831092C1000895BB
:04057000F894FFCF2D
:100574000A000B000C000D0002000300040005003B
:00000001FF
